:100444002D4F4E004F464600D2D1BFAAC6F42D4FC1
:100454004E00D2D1B9D8B1D54F4646002343004D02
:1004640047004C55580054656D704C483A3230235F
:10047400432D33302343004F324C483A342E354D0C
:10048400472D352E354D4700B9E2D5D53A313030B8
:100494004C582D3230304C580054656D704C483AED
:1004A400313523432D3235234300D1F5B4EFB5BDA7
:1004B400352E30304D47B9D8B1D500CEC2B6C8B408
:1004C400EFB5BD32302343B9D8B1D5002D2E2F2C32
:1004D400282B070F0910130E0C124008163C2A345F
:1004E40032000000000000000000CBAEB2FAD1F8E8
:1004F400D6B3BCE0BFD8CFB5CDB300B8B4CEBBB093
:10050400B4BCFCD1B0BABDCFB5CDB300BCB4BDABA7
:10051400BDF8C8EBBFAABBFABDE7C3E600CFB5CDB3
:10052400B3C6F4B6AFD6D02E2E2E2E2E2E00CFB5B7
:10053400CDB3C6F4B6AFB3C9B9A62E2E2E2E00B0D5
:10054400B4C8CED2E2BCFCBCCCD0F82E2E2E2E00E9
:10055400B5B1C7B0CEC2B6C83A00B5B1C7B0D1F5CF
:10056400C6F83A00B5B1C7B0B9E2D5D53A00CFB5AF
:10057400CDB3CEC2B6C83A00B5E7BBFABCC6CAB161
:10058400002D2D202D2D202D2D00CAB5CAB1BCE083
:10059400BFD8B1A8BEAFB9A4D7F700BEAFB8E6B50F
:1005A400B1C7B0CBAECEC2B8DF2100BEAFB8E6B59E
:1005B400B1C7B0BAACD1F5B5CD2100BEAFB8E6B97C
:1005C400E2D5D5C7BFB6C800BEAFB8E6BBB7BEB3A9
:1005D400CEC2B6C8B8DF2100BEAFB8E6BBB7BEB363
:1005E400CEC2B6C8B5CD2100B5B1C7B0CBAECEC270
:1005F400CACAD2CBD1F8D6B300B5B1C7B0BAACD160
:10060400F5CACAD2CBD1F8D6B300B5B1C7B0B9E2F6
:10061400D5D5CACAD2CBD1F8D6B300B5B1C7B0CFFD
:10062400B5CDB3CEC2B6C8CACABACF00B5E7BBFA15
:10063400B9A4D7F7D7B4CCAC3A00B5E7BBFAD7B472
:10064400CCACB2E9D1AFD6D02E2E00B5B1C7B0CA6A
:10065400B1D6D3D7B4CCAC3A00B1A8BEAFB9A4D705
:10066400F7D7B4CCAC3A00B1A8BEAFB5E7C2B7D2A5
:10067400D1B4F2BFAA00CBAEB2FAD1F8D6B3B5E783
:10068400BBFAD7B4CCAC00B9A4D7F7B5E7BBFAC86A
:10069400ABB2BFC6F4B6AF00D4F6D1F5BBFA00D402
:1006A400F6CEC2BBFA00CDB6C1CFBBFA00B9E2D5D3
:1006B400D5BBFA00D4F6D1F5BBFAB9A4D7F7D6D096
:1006C4002E2E00B9A4D7F7CAB1BCE400B9A4D7F759
:1006D400B5BDD2BBD0A1CAB1CDA3D6B900D4F6CE94
:1006E400C2BBFAB9A4D7F7D6D02E2E00B9A4D7F737
:1006F400CAB1BCE400B9A4D7F7B5BDD2BBD0A1CA76
:10070400B1CDA3D6B900CDB6C1CFBBFAB9A4D7F742
:10071400D6D02E2E00B9A4D7F7CAB1BCE400B9A430
:10072400D7F7B5BDD2BBD0A1CAB1CDA3D6B900D439
:10073400F6B9E2BBFAB9A4D7F7D6D02E2E00B9A4E5
:10074400D7F7CAB1BCE400B2CEBFBCCDB6CEB9B9FE
:10075400E2D5D5B7B6CEA700B9A4D7F7B5BDD2BBFD
:10076400D0A1CAB1CDA3D6B900B9E2D5D5CACAD2EF
:10077400CBCACAD2CBCDB6CEB900BDF8C8EBD2B97C
:10078400CDEDD7A2D2E2B7C0B5C1002D2DD3C3BBE6
:10079400A7B0B4BCFCB2D9D7F72D2D00CFB5CDB3DB
:1007A400BDF8C8EBD1B2BABDC4A3CABD00C0B4D7AA
:1007B400D4B4D3BBFACEC2B6C8D0C5CFA200CBAE98
:1007C400CEC23A00D1F5C6F83A002D2D2D2D2D2D8F
:1007D4002D2D2D2D2D2D2D2D2D2D003443101001BB
:0507E400000000000010
:061E06000125000123008C
:041E16007F017E00CA
:0B1E1A00EF1FAC0670011E4C70F6229A
:101C3700E4FDEDC39FE49E501BE4FCECC39FE49ED0
:101C4700500FE4FBEBC39FE49E50030B80F60C8020
:041C5700EA0D80DE34
:011C5B002266
:081E80007FB47E49DEFEDFFCA9
:011E88002237
:0D1E2500007F047E817D77DDFEDEFCDFFAAC
:011E3200228D
:0D1E3300007F087E017DF3DDFEDEFCDFFA9E
:011E4000227F
:0D1E4100007F0F7E027DEBDDFEDEFCDFFA90
:011E4E002271
:0B1E6A00B2957F327E00121E1A80F538
:091E8900C292D293C297D29422B6
:101DAB00E4FEEF339291EF25E0FFD297A296E43356
:081DBB004207C2970EBE08EAC0
:011DC30022FD
:0917E6007D017F211217EF7F2223
:1017EF00C293121DABAC07AF05121DABD293AF0462
:0117FF0022C7
:0C1E5D00C293121DABE4FF121DABD29328
:011E69002256
:061BB8008B0C8A0D890E62
:101BBE00C293121DABAD07E4FCECC3950F5017E4B6
:101BCE00FF121DABAB0CAA0DA90E8C82758300EF14
:0A1BDE0012035D0C80E3D293AF0503
:011BE80022DA
:0B1B49007BFF7A0779DF75120A7F2A04
:061B54008B0F8A108911BD
:101B5A00C293121DABAD07E4FCECC395125015AB52
:101B6A000FAA10A9118C82758300120330FF121D6F
:081B7A00AB0C80E5D293AF052E
:011B82002240
:101BE900C292121B491217E67D287F251217EF7D35
:101BF9000A7F311217EF7D077F261217EF7D0F7FBE
:071C0900201217EFD2922216
:061A30007B007A00795FE3
:101A36008B0B8A0C890DC2927BFF7A0779DF7512B0
:101A46000A7F30121B54121B49AB0BAA0CA90D7549
:101A5600120A7FA0121B541217E67D0A7F24121762
:101A6600EF7D287F251217EF7D077F261217EF7D62
:091A76000E7F201217EFD292221C
:0B1E7500C290C291C292C293C295229B
:091E9200D288D2A8D2AFD2B2224C
:101C10002094FD7FFF121DAB8F2030040830080593
:101C20007FE1121DABAD207F271217EFD294300554
:071C3000037F00227FFF2269
:040A7A00AB07AA0616
:100A7E00AD03AC02EC1202768F0E8E0D8D0C8C0B2C
:100A8E00E4FFFE7DC87C40AB0EAA0DA90CA80B128C
:100A9E0000FEE4FBFAF9783F12000D1202AFAA062F
:100AAE00AB077C277D101203D47E037FE8CFCDCF1A
:100ABE00CECCCE1203D48F0FE50F2430F52F7C034E
:100ACE007DE8AF03AE021203D47E007F64CFCDCF9C
:100ADE00CECCCE1203D48F10E5102430F530753104
:100AEE002E7C007D64AF03AE021203D47E007F0A1B
:100AFE00CFCDCFCECCCE1203D48F11E5112430F54D
:100B0E0032AE02AF037C007D0A1203D48D12E512C1
:100B1E002430F533AC11E412027B7BCD7ACC79CC48
:100B2E00783D1200FEC004C005C006C007E50F7573
:100B3E00F00AA47C002510FDEC35F0FCE4120276E0
:100B4E00D003D002D001D00012000DC004C005C0E9
:100B5E0006C007AC12E412027B7B0A7AD77923789F
:100B6E003C1200FED003D002D001D00012000D8F37
:0F0B7E000E8E0D8D0C8C0B8F6F8E6E8D6D8C6CA3
:010B8D002245
:080D64008F0E8E0D8D0C8C0B1F
:100D6C00E4FFFE7DC87C42AB0EAA0DA90CA80B12A9
:100D7C0000FE1202AFAB07AA067C037DE81203D477
:100D8C008F0FE50F2430F5487C007D64AF03AE0275
:100D9C001203D47C007D0A1203D48D10E51024308C
:100DAC00F549754A2E7C007D64AF03AE021203D464
:100DBC007E007F0ACFCDCFCECCCE1203D48F11E5DF
:100DCC00112430F54BAE02AF037C007D0A1203D424
:100DDC008D12E5122430F54CAC11E412027B7BCD64
:100DEC007ACC79CC783D1200FEC004C005C006C098
:100DFC0007E50F75F00AA47C002510FDEC35F0FC1E
:100E0C00E4120276D003D002D001D00012000DC043
:100E1C0004C005C006C007AC12E412027B7B0A7A40
:100E2C00D77923783C1200FED003D002D001D00039
:0B0E3C0012000D8F2E8E2D8D2C8C2BA4
:010E47002288
:1019310020B12F7F147E00121E1A20B1251207E953
:10194100120A7AAF6FAE6EAD6DAC6C1218D1120D7A
:1019510064121A30D208121C10121BE930B1FD7545
:101961002301E52364017022121E411207E9120AC4
:101971007AAF6FAE6EAD6DAC6C1218D1120D6412F0
:0B1981001A30D208121C10121BE922C1
:101770007FA4121DC48E6A8F6B7FA4121DC48E6A53
:101780008F6B7FA4121DC48E6A8F6B7C037DE81261
:10179000037FEF2430F526AE6AAF6B7C037DE81241
:1017A000037FAA04AB057D647C00AF03AE02120385
:1017B0007FEF2430F5277D647C00AF03AE02120377
:1017C0007FAA04AB057D0A7C00AF03AE0212037F43
:1017D000EF2430F5287D0A7C00AF03AE0212037FB0
:0617E000ED2430F5292282
:10133F007FD4121DC48E3E8F3F7FD4121DC48E3EAC
:10134F008F3F7FD4121DC48E3E8F3F7C037DE812EA
:10135F00037F7E007F64CFCDCFCECCCE12037FAA8A
:10136F0006AB07AE3EAF3F7C007D6412037FEF2BD1
:10137F00FDEE3AFCE41202768F528E518D508C4F57
:10138F00AE3EAF3F7C037DE812037FEF2430F5388C
:10139F00AE3EAF3F7C037DE812037FAA04AB057D11
:1013AF00647C00AF03AE0212037FEF2430F5397572
:1013BF003A2E7D647C00AF03AE0212037FAA04AB0A
:1013CF00057D0A7C00AF03AE0212037FEF2430F5D8
:1013DF003B7D0A7C00AF03AE0212037FED2430F594
:0213EF003C229E
:10128700E515C4540FF975F00AA42515540FF54D4B
:10129700E514C4540F75F00AA42514540FF54EE550
:1012A70013C4540F75F00AA42513540FF569E54EBE
:1012B70075F03CA4FBAAF0AE4DE54D75F00EA4CE3B
:1012C70075F010A4FFE5F02EFEEF2BFFEE3AFE7C43
:1012D70000EF2569F554EC3EF553E92430F540E578
:1012E70015540F2430F54175423AE514C4540F24C0
:1012F70030F543E514540F2430F54475453AE513AA
:10130700C4540F2430F546E513540F2430F5477BBA
:05131700007A0079409E
:06131C008B0B8A0C890D09
:10132200E4F50EAB0BAA0CA90D850E827583001293
:0C1332000330FF6007121D31050E80E73C
:01133E00228C
:03000300020E48A2
:100E4800C0E0C0D075D000C000C002C003C004C05C
:050E580005C006C00703
:100E5D007524007FBC7E02121E1A30B202E1187B8F
:100E6D00E87A0320B213D3EB9400EA9400400A12FF
:100E7D001E16EB1B70ED1A80EA20B202E1187A0102
:100E8D007BF430B213D3EB9400EA9400400A121EA7
:100E9D0016EB1B70ED1A80EAE4FD7508007A007BF5
:100EAD003C20B213D3EB9400EA9400400A121E16B4
:100EBD00EB1B70ED1A80EA7A017BF430B220D3EB94
:100ECD009400EA940040177F0A7E00121E1A052432
:100EDD00EB1B70011AE524D3941E40DF802D743472
:100EED002DF8C000E6C313D000F6E524C3940840E6
:100EFD000874342DF8E64480F67524000508E508DD
:0B0F0D00C3940840980DED6404708F41
:100F1800D007D006D005D004D003D002D000D0D05E
:030F2800D0E032E4
:10198C007F01121D11121E80E4FDFF121D517BFF01
:10199C007A0479EE12131CE4FD7F01121D517BFFBA
:1019AC007A05792112131C121E33E4FD7F01121DDE
:1019BC00517BFF7A05793212131C121E33E4FD7F22
:1019CC0002121D517BFF7A05794312131C7F017E95
:0419DC0000021C37B2
:10153F00121CEE7F01121D11121E80E4F569F54E8B
:10154F00F54DE4FDFF121D517BFF7A0479EE121366
:10155F001C121E80E4FD7F01121D517BFF7A05795D
:10156F007C12131C121DDDE515C4540F1212E2D2AA
:10157F0090D291D292D293121E80E4FD7F02121D5F
:10158F00517BFF7A06798B12131C121E80E4FD7FAC
:10159F0003121D517BFF7A0479FF12131CE536C429
:1015AF00540F75F00AA4FFE536540F2FF522642867
:1015BF007090FE7F07FDFB7A007913120418C2901A
:0915CF00C291C292C2930219E01C
:10186F007F01121D11121E33E4FDFF121D517BFF6C
:10187F007A0479EE12131CE4FD7F01121D51121E22
:10188F00337BFF7A06795D12131C7BFF2095067A56
:10189F0004794480047A04794812131C121E41E41F
:1018AF00FD7F02121D517BFF7A06796B12131CE428
:1018BF00FD7F03121D517BFF7A0779CE12131C0295
:0218CF001E6A8F
:100B8E007F01121D11121E80E4FDFF121D517BFF0D
:100B9E007A0479EE12131CE4FD7F01121D517BFFC6
:100BAE007A06797A12131CE4FD7F02121D517BFF27
:100BBE007A06793E12131C121E337F01121D11E4A8
:100BCE00FDFF121D517BFF7A06799C12131C7BFFD1
:100BDE003090067A04794C80047A04795612131CEC
:100BEE00121E80E4FD7F01121D517BFF7A0679A350
:100BFE0012131C7BFF3091067A04794C80047A0420
:100C0E00795612131C121E80E4FD7F02121D517BB9
:100C1E00FF7A0679AA12131C7BFF3092067A0479AA
:100C2E004C80047A04795612131C121E80E4FD7F48
:100C3E0003121D517BFF7A0679B112131C7BFF3014
:100C4E0093067A04794C80047A04795612131C1296
:100C5E001E41E536C4540F75F00AA4FFE536540F55
:0C0C6E002FF5226428600261C80219E022
:1019E0007F01121D11121E807F01121D11E4FDFFE7
:1019F000121D517BFF7A0479EE12131CE4FD7F0166
:101A0000121D517BFF7A0779A012131CE4FD7F029F
:101A1000121D517BFF7A07798F12131CE4FD7F039F
:101A2000121D517BFF7A0779CE12131C121E412220
:100C7A00C290C291C292C293121E89121BE97F01CD
:100C8A00121D11121E80E4FDFF121D517BFF7A0412
:100C9A0079EE12131CE4FD7F01121D517BFF7A07C6
:100CAA0079B112131C1219317F07121E5D8F203081
:100CBA0006117B007A007955750F0A7F61121BB8FD
:0E0CCA00752501AD207F271217EFE52560721A
:100CD800E4F525FD7F01121D517BFF7A0779B112DA
:100CE800131CE4FD7F02121D517BFF7A0779C212A3
:100CF800131CE4F50A7455250AF8E6FF121D3105A0
:100D08000AE50AC3940540ED7F23121D317F431283
:100D18001D31E4FD7F03121D517BFF7A0779C8124C
:100D2800131C750A057455250AF8E6FF121D3105CE
:100D38000AE50AC3940A40ED7F4D121D317F471220
:020D48001D315B
:100D4A00E536C4540F75F00AA4FFE536540F2FF5A3
:0A0D5A00226428600281AF0219E054
:010FFF0022CF
:011EAB002214
:011EAC002213
:080800007F01121D11121E8080
:10080800750A0A7F01121D11E4FDFF121D517BFFBD
:100818007A0479EE12131CE50A700201B2E4FD7F36
:1008280001121D517BFF7A05795412131C1207E936
:10083800120A7A7B007A00792F12131C7BFF7A0444
:10084800796012131C121E25E4FD7F02121D517BD4
:10085800FF7A05795E12131C1207E9120A7AAF6F44
:10086800AE6EAD6DAC6C1218D1120D647B007A00BF
:10087800794812131C7BFF7A04796312131C121E29
:1008880025E4FD7F03121D517BFF7A057968121359
:100898001C1217707B007A00792612131C7BFF7AD2
:1008A80004796612131C150A011F7F01121D11E439
:1008B800FDFF121D517BFF7A0479EE12131C750A95
:1008C8000AE4FD7F01121D517BFF7A05797212132C
:1008D8001C12133F7B007A00793812131C7BFF7AB5
:1008E80004796012131C121E25E4FD7F02121D51AB
:1008F8007BFF7A06793012131C209009209106207C
:1009080092033093087BFF7A04794480067BFF7A50
:1009180004794812131C121E25E4FD7F03121D5191
:100928007BFF7A06794F12131C7BFF7A04794412F5
:10093800131C150AE50A7089E536C4540F75F00AC8
:0F094800A4FFE536540F2FF52264286002010842
:030957000219E0A2
:011EAD002212
:011EAE002211
:100F2B007F01121D11121E80E4FDFF121D517BFF6C
:100F3B007A05798E12131CE4FD7F01121D517BFF84
:100F4B007A05795412131C1207E9120A7A7B007A7C
:100F5B0000792F12131C7BFF7A04796012131CE4A7
:100F6B00FFFE7DF07C41AB6FAA6EA96DA86C1202DF
:100F7B00044018E4FD7F02121D517BFF7A05799F17
:100F8B0012131C121E41121E6A804FE4FFFE7DA03D
:100F9B007C41AB6FAA6EA96DA86C12020460025063
:100FAB0014E4FD7F02121D517BFF7A0679E11213C7
:100FBB001CD2918025E4FD7F02121D517BFF7A0527
:100FCB0079EC12131CE4FD7F03121D517BFF7A0495
:100FDB00796A12131C121E33C291E536C4540F7575
:100FEB00F00AA4FFE536540F2FF52264286002E1C6
:040FFB00420219E0B5
:1010DA007F01121D11121E80E4FDFF121D517BFFBC
:1010EA007A05798E12131CE4FD7F01121D517BFFD4
:1010FA007A05795E12131C1207E9120A7AAF6FAEEB
:10110A006EAD6DAC6C1218D1120D647B007A007949
:10111A004812131C7BFF7A04796312131CE4FFFE46
:10112A00FD7C40AB2EAA2DA92CA82B12020460022A
:10113A005014E4FD7F02121D517BFF7A0579AF122C
:10114A00131CD2908047E4FFFEFD7C41AB2EAA2DF2
:10115A00A92CA82B120204E4FD7F024010121D5193
:10116A007BFF7A07790A12131CD2928020121D5132
:10117A007BFF7A0579FD12131CE4FD7F03121D51D2
:10118A007BFF7A04797B12131CC290C292E536C4A3
:10119A00540F75F00AA4FFE536540F2FF522642880
:0711AA00600201F10219E0EF
:1011B1007F01121D11121E80E4FDFF121D517BFFE4
:1011C1007A05798E12131CE4FD7F01121D517BFFFC
:1011D1007A05796812131C121770121770121770A2
:1011E1007B007A00792612131C7BFF7A0479661240
:1011F100131CC3E56B94F4E56A94014022E4FD7F7E
:1012010002121D517BFF7A07796D12131CE4FD7FD9
:1012110003121D517BFF7A0779CE12131C804DD327
:10122100E56B9432E56A9400E4FD7F025020121DC3
:10123100517BFF7A07797E12131CE4FD7F03121D97
:10124100517BFF7A0779CE12131CD293801E121D97
:10125100517BFF7A07794B12131CE4FD7F03121DAA
:10126100517BFF7A04798C12131CC293E536C45466
:101271000F75F00AA4FFE536540F2FF5226428609C
:061281000221C80219E081
:101000007F01121D11121E80E4FDFF121D517BFF96
:101010007A05798E12131CE4FD7F01121D517BFFAE
:101020007A05797212131C12133F12133F12133FE9
:101030007B007A00793812131C7BFF7A04796012E6
:10104000131CE4FFFE7DC87C41AB52AA51A950A8F5
:101050004F120204400FE4FD7F02121D517BFF7A04
:101060000579CC8023E4FFFE7D707C41AB52AA5110
:10107000A950A84F12020460025025E4FD7F02121D
:101080001D517BFF7A0579DC12131CE4FD7F0312EE
:101090001D517BFF7A0779CE12131C121E6A802025
:1010A000E4FD7F02121D517BFF7A06791F12131C8B
:1010B000E4FD7F03121D517BFF7A04799D12131CFE
:1010C000E536C4540F75F00AA4FFE536540F2FF52A
:0A10D000226428600201170219E0F3
:101664007F01121D11121E80D290E4FDFF121D5144
:101674007BFF7A0479EE12131CE4FD7F01121D51E5
:101684007BFF7A0679B812131C121CEE121DDDE4DE
:10169400FD7F02121D517BFF7A0679C712131C12BB
:1016A4001287E554B41008E553B40E03C29022E443
:1016B400FD7F03121D517BFF7A0679D012131CE5BE
:1016C40036C4540F75F00AA4FFE536540F2FF522E3
:1016D400642870B8FE7F07FDFB7A007913120418A2
:0616E400C2901219E02281
:1016EA007F01121D11121E80D292E4FDFF121D51BC
:1016FA007BFF7A0479EE12131CE4FD7F01121D515F
:10170A007BFF7A07790A12131C121CEE121DDDE404
:10171A00FD7F02121D517BFF7A07791912131C12E1
:10172A001287E554B41008E553B40E03C29222E4BA
:10173A00FD7F03121D517BFF7A07792212131CE5E4
:10174A0036C4540F75F00AA4FFE536540F2FF5225C
:10175A00642870B8FE7F07FDFB7A0079131204181B
:06176A00C2921219E022F8
:1013F1007F01121D11121E80D290E4FDFF121D51BA
:101401007BFF7A0479EE12131CE4FDFF121D517B60
:10141100FF7A0479EE12131CE4FD7F01121D517B4A
:10142100FF7A0679B812131CE4FD7F02121D517B6D
:10143100FF7A05795E12131C1207E9120A7AAF6F5F
:10144100AE6EAD6DAC6C1218D1120D647B007A00DA
:10145100794812131C7BFF7A04796312131CE4FD93
:101461007F03121D51E4FFFE7DB07C40AB2EAA2DFF
:10147100A92CA82B1202044002C2907BFF7A0479A6
:10148100AE12131CE536C4540F75F00AA4FFE536FD
:0E149100540F2FF52264286002810A0219E030
:10149F007F01121D11121E80D291E4FDFF121D510A
:1014AF007BFF7A0479EE12131CE4FDFF121D517BB2
:1014BF00FF7A0479EE12131CE4FD7F01121D517B9C
:1014CF00FF7A0679E112131CE4FD7F02121D517B96
:1014DF00FF7A05795412131C1207E9120A7A7B005E
:1014EF007A00792F12131C7BFF7A04796012131C78
:1014FF00E4FD7F03121D51E4FFFE7DA07C41AB6F25
:10150F00AA6EA96DA86C1202044002C2917BFF7AE9
:10151F000479BF12131CE536C4540F75F00AA4FFEB
:10152F00E536540F2FF5226428600281B80219E0C6
:101800007F01121D11121E80D292E4FDFF121D51A4
:101810007BFF7A0479EE12131CE4FDFF121D517B4D
:10182000FF7A0479EE12131CE4FD7F01121D517B37
:10183000FF7A07790A12131CE4FD7F02121D517B07
:10184000FF7A0779CE12131CE4FD7F03121D517B32
:10185000FF7A0779CE12131CE536C4540F75F00ACF
:0F186000A4FFE536540F2FF522B428AD0219E08E
:10095A00121E75121E92121DF3E4FDFF121D517B29
:10096A00FF7A0479EE12131CE4FD7F01121D517BFC
:10097A00FF7A05791012131CE4FD7F02121D517BC8
:10098A00FF7A0779CE12131CE4FD7F03121D517BF7
:0E099A00FF7A0779CE12131C121E8012198CE0
:1009A800E536C4540F75F00AA4FFE536540F2FF549
:1009B80022E4F509E5099004D09365226002416DAF
:1009C8007F01121D11E509B415004002416D90091F
:1009D800DC25E0734106410B41104115411A411FC6
:1009E80041244129412E41334138413D414241474B
:1009F800414C41514156415B41604165416A121980
:100A08008C806212153F805D12186F8058120B8E11
:100A180080531219E0804E120C7A8049120FFF8021
:100A280044121EAB803F121EAC803A12080080357B
:100A3800121EAD8030121EAE802B120F2B80261294
:100A480010DA80211211B1801C12100080171216C2
:100A58006480121216EA800D1213F1800812149F96
:100A680080031218000509E509C39415500221BC3A
:020A780021A8B3
:0C1C5C00C2A5C2A78980D2A77F057E0028
:101C6800D3EF9400EE9400400F7DC77C01DCFEDDCD
:081C7800FAEF1F70EB1E80E87B
:011C80002241
:101CA600E4FBC2A6D2A5D2A77F01FE121C68E5807E
:101CB60030E70C0BEBD3946440F4C2A77F0022C23A
:031CC600A77F01F4
:011CC90022F8
:021D1100A90720
:101D1300E4FA121CA6EF700E7F01FE121C680AEA99
:0D1D2300D3946440ED22C2A6121C5CC2A73E
:011D30002290
:021D3100A90700
:101D3300E4FA121CA6EF700E7F01FE121C680AEA79
:0D1D4300D3946440ED22D2A6121C5CC2A70E
:011D50002270
:101DF300D2B2D2B37F30121D117F0C121D117F019D
:031E0300021D11AC
:101D5100EF70047F808013BF01047F90800CBF026D
:101D6100047F888005BF03027F98EF2DFF021D11BC
:101D7100D3EF9400EE940040147D6E7C00ED1D7055
:0D1D8100011CED4C70F7EF1F70E61E80E3B3
:011D8E002232
:101C8100C2B77B46AF031BEF70FAD2B7E4FB30B7A4
:101C9100117F017E00121D710BEBD3940540EF7F84
:041CA10000227F019D
:011CA500221C
:0C1AC900121C817F017E00121D717FCC79
:101AD500E4FBFAC2B7050DE50D7002050CEF139294
:101AE500B7750C00750D06E50D150DAC0C700215DE
:101AF5000C4C70F3D2B7EFC313FF0BBB00010AEB1D
:051B050064084A70CEE7
:011B0A0022B8
:101B0B007D087C00C2B70FBF0000D2B70FBF00002B
:101B1B000FBF0000A2B7E433C43333335480FBE967
:101B2B00C3134BF97E007F04EF1FAA0670011E4AF8
:0D1B3B0070F6ED1D70011CED4C70C9AF017E
:011B4800227A
:081E9B00121AC97F44021AD596
:081EA300121AC97FBE021AD514
:1007E900E4FFFE121E9B121EA3121B0B8F0B121B82
:0607F9000BEFFEE50BFF13
:0107FF0022D7
:101D8F00C2B6E4FEEFC4131313540124FF92B4EF51
:0B1D9F0025E0FFC2B6D2B60EBE08E978
:011DAA002216
:101CCA00E4FFFEC2B6FDFCEF25E0FFEE33FED2B61E
:101CDA00C2B6A2B7E43342070DBD00010CED640C95
:031CEA004C70E457
:011CED0022D4
:101DC400C2B6C2B5121D8F7F06DFFED2B60000C2B6
:081DD400B60000121CCAD2B5D2
:011DDC0022E4
:0818D1008F0E8E0D8D0C8C0BA7
:1018D9007F087E0A7DB47C3AAB0EAA0DA90CA80B31
:1018E9001200FEAB0EAA0DA90CA80B1200FEC00433
:1018F900C005C006C0077F067EF27D277C3EAB0E81
:10190900AA0DA90CA80B1200FEA804A905AA06ABEA
:1019190007D007D006D005D0041200097BF97A7EDA
:071929007903784112000D63
:011930002294
:0E1E4F0081838587898B8D80828486888A8C2A
:091E0C00071300000000000000B3
:101B8300C2B500C2B600D2B500E4FEEF1392B4EFC3
:101B9300C313FFD2B600C2B6000EBE08EEE4FEEDDC
:101BA3001392B4EDC313FDD2B600C2B6000EBE0845
:041BB300EEC2B500C9
:011BB700220B
:101A7F00C2B500C2B600D2B500E4FDEF1392B4EFC9
:101A8F00C313FFD2B600C2B6000DBD08EE00E4FDD1
:101A9F00A2B4E433FFC43333335480FCEEC3134C8E
:101AAF00FED2B600C2B6000DBD08E5C2B500D2B673
:091ABF0000C2B400D2B400AF066D
:011AC80022FB
:101CEE00E4FD7F8E121B83E4FCEC901E5693FF7472
:101CFE00132CF8E6FD121B830CBC07ED7D807F8E46
:031D0E00021B8332
:101DDD00E4FBEB901E4F93FF121A7F74132BF8A6A2
:051DED00070BBB07ED30
:011DF20022CE
:1000060002031BE86480F8E933E83360110460F00A
:10001600ED33EC337009E8FCE9FDEAFEEBFF220460
:1000260060DED3EB9FEA9EE99DE8C2E78CF0C2F75B
:1000360095F0400CE8CCF8E9CDF9EACEFAEBCFFB27
:100046001202E685D0F05804700320D5B3E8047098
:10005600075002B2D502032592D5EC0460F7E4CC32
:10006600C0E0C398F8603B94186008400DD0E0FBF0
:100076000202FDE4FBFAC9FC8028E830E406E4C984
:10008600FBE4CAFCE830E305E4C9CACBFCE8540744
:100096006010F8C3E913F9EA13FAEB13FBEC13FC4F
:1000A600D8F130F52FC3E49CFCEF9BFFEE9AFEEDF2
:1000B60099FDD0E0FBEF4E4D4C701222DB0302039C
:1000C60022EC2CFCEF33FFEE33FEED33FDED30E793
:1000D600EB0202FDEF2BFFEE3AFEED39FDD0E0FB21
:1000E60050130BBB0003020325ED13FDEE13FEEFC9
:0800F60013FFEC13FC0202FDF4
:1000FE00EC4D6011E8497017ED33EC3304600DE4FC
:10010E00FCFFFEFD22E933E8330470F802031B12F4
:10011E0002E658046009E4CC2481500628500902F6
:10012E000325284003020322C0E0EB4A7044B98045
:10013E0006D0E0FB020311EF4E701CBD8008EBFFF2
:10014E00EAFEE9FD80EBE98DF0A4FEE5F00201E7A1
:10015E00E9CDF9EAFEEBFFEF89F0A4FCE5F0CE89DC
:10016E00F0A42EFFE435F0CD89F0A42DFEE435F099
:10017E008067EF4E7005BD80D780C3EF8BF0A4ACC7
:10018E00F0EE8BF0A42CFCE435F0F8EF8AF0A42C02
:10019E00E5F038FCE433CB8DF0A42CFCE5F03BF815
:1001AE00EE8AF0A42CFCE5F038F8E433CF89F0A405
:1001BE002CFCE5F038CF3400CE89F0A42FFFE5F00B
:1001CE003EFEE433C98DF0A42EFEE5F039CD8AF063
:1001DE00A42FFFE5F03EFEE43DFD33D0E0FB5007DB
:1001EE000BBB000F020325EC2CFCEF33FFEE33FEAE
:0601FE00ED33FD0202FDDD
:1002040074F8CC6480CCC86480C8F582046043C3AD
:10021400EB9FF5F0EA9E42F0E99D42F0E89C45F040
:1002240060305018E5825FFFE582F42B5582FB5065
:10023400210ABA001D09B90019088016E5825BFB82
:10024400E582F42F5582FF50090EBE00050DBD0056
:10025400010CC3EB9FF5F0EA9E42F0E99D42F0E801
:0D0264009C45F06007CC4820E701B3EC2278
:1002710075F020800E75F010800575F0087D007E08
:10028100007F003392D530D50312040AEC334010BD
:10029100EF33FFEE33FEED33FDEC33FCD5F0ED2211
:0E02A100E5F0247EA2D513CC92E7CDCEFF224D
:1002AF00EDD2E7CD33EC3392D524814006E4FFFE47
:1002BF00FDFC22FCE4CFCECDCC24E0501174FF80A6
:1002CF00EDC3CC13CCCD13CDCE13CECF13CF047043
:0702DF00F030D5DE02040A35
:1002E600E9D2E7C933E833F892D5EDD2E7CD33EC5E
:0702F60033FC5002B2D522D7
:1002FD00EC30E7100FBF000C0EBE00080DBD000462
:10030D000BEB6014A2D5EB13FCED92E7FD2274FF0D
:10031D00FCFDFEFF22E480F8A2D574FF13FC7D8066
:03032D00E480EF7A
:030000000215D80E
:0C15D800787FE4F6D8FD75816F02161FC5
:10033000BB010CE58229F582E5833AF583E0225082
:1003400006E92582F8E622BBFE06E92582F8E222CC
:0D035000E58229F582E5833AF583E49322E6
:10035D00F8BB010DE58229F582E5833AF583E8F0D6
:10036D00225006E92582C8F622BBFE05E92582C882
:02037D00F2226A
:10037F00BC000BBE0029EF8DF084FFADF022E4CC62
:10038F00F875F008EF2FFFEE33FEEC33FCEE9DEC2B
:10039F00984005FCEE9DFE0FD5F0E9E4CEFD22ED71
:1003AF00F8F5F0EE8420D21CFEADF075F008EF2FBB
:1003BF00FFED33FD4007985006D5F0F222C398FDAC
:0503CF000FD5F0EA2249
:1003D400C2D5EC30E709B2D5E4C39DFDE49CFCEE44
:1003E40030E715B2D5E4C39FFFE49EFE12037FC33A
:1003F400E49DFDE49CFC800312037F30D507C3E435
:060404009FFFE49EFE22B2
:0E040A00C3E49FFFE49EFEE49DFDE49CFC2203
:10041800EF4E6012EF60010EEDBB010B89828A83FB
:10042800F0A3DFFCDEFA2289F05007F709DFFCA908
:0C043800F022BBFEFCF309DFFCA9F0225F
:1015E40002095AE493A3F8E493A34003F68001F2BA
:1015F40008DFF48029E493A3F85407240CC8C33308
:10160400C4540F4420C8834004F456800146F6DFD6
:10161400E4800B0102040810204080901E06E47E42
:10162400019360BCA3FF543F30E509541FFEE493CB
:10163400A360010ECF54C025E060A840B8E493A392
:10164400FAE493A3F8E493A3C8C582C8CAC583CABD
:10165400F0A3C8C582C8CAC583CADFE9DEE780BE75
:011E150000CC
:00000001FF
