:0A08E1003443101001000000000075
:06090400012300012200A6
:0908EB00C292D293C297D294226A
:1008B400E4FEEEC39F500B7DFADDFE7DFADDFE0EF5
:0208C40080F0C2
:0108C600220F
:10088400E4FEEF339291EF25E0FFD297A296E43392
:080894004207C2970EBE08EAFC
:01089C002239
:09086A007D017F211208737F2239
:10087300C293120884AC07AF05120884D293AF0465
:010883002252
:0C08C700C293120884E4FF120884D2934C
:0108D3002202
:060777008B098A0A890BC0
:10077D00C293120884AD07E4FCECC3950C5017E44A
:10078D00FF120884AB09AA0AA90B8C82758300EFAE
:0A079D001202ED0C80E3D293AF05C9
:0107A700222F
:0B073D007BFF7A0879E1750F0A7F2A24
:060748008B0C8A0D890EE6
:10074E00C293120884AD07E4FCECC3950F5015ABB1
:10075E000CAA0DA90E8C827583001202C0FF12081E
:08076E00840C80E5D293AF0575
:010776002260
:1007D500C29212073D12086A7D287F251208737D93
:1007E5000A7F311208737D077F261208737D0F7FFC
:0707F50020120873D29222CA
:06062C007B007A00793228
:100632008B088A09890AC2927BFF7A0879E1750FD1
:100642000A7F3012074812073DAB08AA09A90A75AA
:100652000F0A7FA012074812086A7D0A7F24120837
:10066200737D287F251208737D077F261208737D0C
:090672000E7F20120873D29222BF
:0C08D4007F087E017DF3DDFEDEFCDFFA14
:0108E00022F5
:100800002094FD7FFF1208848F20300408300805F3
:100810007FE1120884AD207F27120873D29430053F
:07082000037F00227FFF228D
:0403BA00AB07AA06DD
:1003BE00AD03AC02EC1202068F0B8E0A8D098C086F
:1003CE00E4FFFE7DC87C40AB0BAA0AA909A808125F
:1003DE0000FBE4FBFAF9783F12000A12023FAA066C
:1003EE00AB077C277D101203217E037FE8CFCDCF94
:1003FE00CECCCE1203218E0C8F0DEF2430F5327C35
:10040E00037DE8AF03AE021203217E007F64CFCDE1
:10041E00CFCECCCE1203218E0E8F0FEF2430F533BC
:10042E0075342E7C007D64AF03AE021203217E0074
:10043E007F0ACFCDCFCECCCE1203218F828E83EF0B
:10044E002430F535AE02AF037C007D0A1203218CF9
:10045E00108D11E5112430F536AE83AF82AD07ACA9
:10046E0006EC1202067BCD7ACC79CC783D1200FBDD
:10047E00C004C005C006C007AE0CAF0D7C007D0ADF
:10048E0012030FE50F2FFDE50E3EFC120206D00300
:10049E00D002D001D00012000AC004C005C006C0B0
:1004AE0007AC10AD11EC1202067B0A7AD7792378CD
:1004BE003C1200FBD003D002D001D00012000A8FF4
:0704CE00278E268D258C24EA
:0104D5002204
:10056200AF27AE26AD25AC241205CCE4FBFA79C840
:1005720078421200FB12023FAB07AA067C037DE819
:10058200120321EF2430F5377C007D64AF03AE0205
:100592001203217C007D0A120321ED2430F5387507
:1005A200392E7C007D0AAF03AE021203217C007D4E
:1005B2000A120321ED2430F53AAE02AF037C007D2E
:0905C2000A120321ED2430F53B7F
:0105CB00220D
:10067B0020B1227F141208B420B11A12089D120364
:10068B00BA12056212062CD2081208001207D530D6
:10069B00B1FD752201E522B401171208D412089D91
:1006AB001203BA12056212062CD2081208001207A6
:0206BB00D52246
:1007A8001208EB1207D512067B7F071208C78F20A5
:1007B8003006117B007A007928750C0A7F611207D0
:0D07C80077752301AD207F2712087380D9BB
:10084C00D3EF9400EE940040147D6E7C00ED1D708F
:0D085C00011CED4C70F7EF1F70E61E80E3ED
:01086900226C
:10082700C2B77B46AF031BEF70FAD2B7E4FB30B712
:10083700117F017E0012084C0BEBD3940540EF7F2C
:0408470000227F010B
:01084B00228A
:0C06BD001208277F017E0012084C7FCC41
:1006C900E4FBFAC2B7050AE50A70020509EF1392BD
:1006D900B7750900750A06E50A150AAC097002150D
:1006E900094C70F3D2B7EFC313FF0BBB00010AEB40
:0506F90064084A70CE08
:0106FE0022D9
:1006FF007D087C00C2B70FBF0000D2B70FBF00004C
:10070F000FBF0000A2B7E433C43333335480FBE987
:10071F00C3134BF97E007F04EF1FAA0670011E4A18
:0D072F0070F6ED1D70011CED4C70C9AF019E
:01073C00229A
:0808F4001206BD7F440206C993
:0808FC001206BD7FBE0206C911
:10089D00E4FFFE1208F41208FC1206FF8F08120680
:0608AD00FFEFFEE508FF6D
:0108B3002222
:0805CC008F0B8E0A8D098C08CB
:1005D4007F087E0A7DB47C3AAB0BAA0AA909A80855
:1005E4001200FBAB0BAA0AA909A8081200FBC0045D
:1005F400C005C006C0077F067EF27D277C3EAB0B9C
:10060400AA0AA909A8081200FBA804A905AA06AB0E
:1006140007D007D006D005D0041200067BF97A7EF5
:070624007903784112000A7E
:01062B0022AC
:100003000202ABE86480F8E933E83360110460F07E
:10001300ED33EC337009E8FCE9FDEAFEEBFF220463
:1000230060DED3EB9FEA9EE99DE8C2E78CF0C2F75E
:1000330095F0400CE8CCF8E9CDF9EACEFAEBCFFB2A
:1000430012027685D0F05804700320D5B3E804700B
:10005300075002B2D50202B592D5EC0460F7E4CCA6
:10006300C0E0C398F8603B94186008400DD0E0FBF3
:1000730002028DE4FBFAC9FC8028E830E406E4C9F7
:10008300FBE4CAFCE830E305E4C9CACBFCE8540747
:100093006010F8C3E913F9EA13FAEB13FBEC13FC52
:1000A300D8F130F52FC3E49CFCEF9BFFEE9AFEEDF5
:1000B30099FDD0E0FBEF4E4D4C701222DB030202A0
:1000C300B2EC2CFCEF33FFEE33FEED33FDED30E706
:1000D300EB02028DEF2BFFEE3AFEED39FDD0E0FB94
:1000E30050130BBB00030202B5ED13FDEE13FEEF3D
:0800F30013FFEC13FC02028D67
:1000FB00EC4D6011E8497017ED33EC3304600DE4FF
:10010B00FCFFFEFD22E933E8330470F80202AB1268
:10011B00027658046009E4CC248150062850090269
:10012B0002B52840030202B2C0E0EB4A7044B9802A
:10013B0006D0E0FB0202A1EF4E701CBD8008EBFF66
:10014B00EAFEE9FD80EBE98DF0A4FEE5F00201E4A7
:10015B00E9CDF9EAFEEBFFEF89F0A4FCE5F0CE89DF
:10016B00F0A42EFFE435F0CD89F0A42DFEE435F09C
:10017B008067EF4E7005BD80D780C3EF8BF0A4ACCA
:10018B00F0EE8BF0A42CFCE435F0F8EF8AF0A42C05
:10019B00E5F038FCE433CB8DF0A42CFCE5F03BF818
:1001AB00EE8AF0A42CFCE5F038F8E433CF89F0A408
:1001BB002CFCE5F038CF3400CE89F0A42FFFE5F00E
:1001CB003EFEE433C98DF0A42EFEE5F039CD8AF066
:1001DB00A42FFFE5F03EFEE43DFD33D0E0FB5007DE
:1001EB000BBB000F0202B5EC2CFCEF33FFEE33FE22
:0601FB00ED33FD02028D50
:1002010075F020800E75F010800575F0087D007E78
:10021100007F003392D530D503120357EC334010E1
:10022100EF33FFEE33FEED33FDEC33FCD5F0ED2281
:0E023100E5F0247EA2D513CC92E7CDCEFF22BD
:10023F00EDD2E7CD33EC3392D524814006E4FFFEB7
:10024F00FDFC22FCE4CFCECDCC24E0501174FF8016
:10025F00EDC3CC13CCCD13CDCE13CECF13CF0470B3
:07026F00F030D5DE02035759
:10027600E9D2E7C933E833F892D5EDD2E7CD33ECCE
:0702860033FC5002B2D52247
:10028D00EC30E7100FBF000C0EBE00080DBD0004D2
:10029D000BEB6014A2D5EB13FCED92E7FD2274FF7E
:1002AD00FCFDFEFF22E480F8A2D574FF13FC7D80D7
:0302BD00E480EFEB
:030000000204D621
:0C04D600787FE4F6D8FD75813B02051D1F
:1002C000BB010CE58229F582E5833AF583E02250F3
:1002D00006E92582F8E622BBFE06E92582F8E2223D
:0D02E000E58229F582E5833AF583E4932257
:1002ED00F8BB010DE58229F582E5833AF583E8F047
:1002FD00225006E92582C8F622BBFE05E92582C8F3
:02030D00F222DA
:10030F00EF8DF0A4A8F0CF8CF0A428CE8DF0A42E02
:02031F00FE22BC
:10032100C2D5EC30E709B2D5E4C39DFDE49CFCEEF7
:1003310030E715B2D5E4C39FFFE49EFE120365C307
:10034100E49DFDE49CFC800312036530D507C3E402
:060351009FFFE49EFE2266
:0E035700C3E49FFFE49EFEE49DFDE49CFC22B7
:1004E2000207A8E493A3F8E493A34003F68001F281
:1004F20008DFF48029E493A3F85407240CC8C3331B
:10050200C4540F4420C8834004F456800146F6DFE9
:10051200E4800B0102040810204080900904E47E6C
:10052200019360BCA3FF543F30E509541FFEE493DE
:10053200A360010ECF54C025E060A840B8E493A3A5
:10054200FAE493A3F8E493A3C8C582C8CAC583CAD0
:10055200F0A3C8C582C8CAC583CADFE9DEE780BE88
:01090A0000EC
:10036500BC000BBE0029EF8DF084FFADF022E4CC7C
:10037500F875F008EF2FFFEE33FEEC33FCEE9DEC45
:10038500984005FCEE9DFE0FD5F0E9E4CEFD22ED8B
:10039500F8F5F0EE8420D21CFEADF075F008EF2FD5
:1003A500FFED33FD4007985006D5F0F222C398FDC6
:0503B5000FD5F0EA2263
:00000001FF
